:100000000C942A000C948F010C94AD010C94A30164
:100010000C9447000C9447000C9447000C94B701D3
:100020000C9447000C9447000C9447000C94470034
:100030000C9447000C9499010C9447000C944700D1
:100040000C9447000C9447000C9447000C94470014
:100050000C94470011241FBECFE5D8E0DEBFCDBF12
:1000600010E0A0E6B0E0EAEFF6E002C005900D92E5
:10007000AA3CB107D9F720E0AAECB0E001C01D927C
:10008000AD3CB207E1F70E94CF010C947B030C94C6
:10009000000087B1887F836087B9369A3699FECF92
:1000A00084B195B108958EB5887F8EBD8EB5886078
:1000B0008EBD83E89EE19BBD8ABD89B7806189BF03
:1000C0008EB585608EBD089585B7806885BF85B77C
:1000D0008F7885BF889585B78F7785BF08959B01F9
:1000E000AC0184E0220F331F441F551F8A95D1F7BE
:1000F00060E072E18AE790E00E944A0321503109F2
:1001000030BD29B988E98AB986E880BD08950E9482
:1001100049009C01A4E6B0E00E946C032FEF33E09D
:1001200040E050E00E944A032A3148F0233360F057
:100130002C3478F060E072EC81E090E0089560EC9F
:1001400072E180E090E0089560E875E280E090E080
:10015000089560E07BE480E090E00895CF93C82F9D
:100160000E9487000E946F005D9BFECF8AEA8CB9D7
:100170008091CA00C8275D9BFECFCCB9CF9108956E
:1001800087B3886187BBC498C39A089587B3886191
:1001900087BB88B3886188BB0895FB01208130E06C
:1001A000082E02C0359527950A94E2F720FF03C078
:1001B00090E080E00895AFE9BCE81197F1F700C046
:1001C0000000208130E0082E02C0359527950A9462
:1001D000E2F720FDEDCF41E050E002C0440F551F93
:1001E0008A95E2F730E020E0808190E08423952337
:1001F000892B61F42837310549F08FE19EE401979E
:10020000F1F700C000002F5F3F4FEECFAFE9BCE831
:100210001197F1F700C000002C33310518F481E08C
:1002200090E0089582E090E0089585BB85E08BBB67
:100230008FEC97E00197F1F700C0000081E08BBBE5
:100240008FE99FE00197F1F700C00000089585BB9A
:1002500084E08BBB8FEC97E00197F1F700C00000C2
:100260001BBA8FE99FE00197F1F700C000000895E5
:10027000CF93C82F81E00E94270183E40E941501DB
:1002800088E40E94150180916000805D0E94150144
:1002900080E20E94150182E5C11184E50E941501EA
:1002A00088E7CF910C941501CF93DF93D82F0E944C
:1002B0004900880F892F881F990B919588309105E7
:1002C00010F087E090E0C82F20916000281721F1FE
:1002D0008093600025E0289FF001299FF00D1124F4
:1002E000ED59FF4F84818093CA00608171818281C2
:1002F00093810E946F00DD2379F081E00E94270145
:1003000083E40E94150188E40E94150180E38C0FAC
:10031000DF91CF910C941501DF91CF9108951F9239
:100320000F920FB60F9211240F900FBE0F901F90D7
:1003300018951F920F920FB60F9211240F900FBEB7
:100340000F901F9018951F920F920FB60F921124C5
:100350000F900FBE0F901F9018951F920F920FB61F
:100360000F9211240F900FBE0F901F9018951F929F
:100370000F920FB60F9211248F938091CB008F5F55
:100380008093CB008091CB00833018F081E0809384
:10039000CC008F910F900FBE0F901F9018958C98E6
:1003A000949A8AB387608ABB8FEF84BB87B38063DC
:1003B00087BB8898899A81B3837D81BBBA9882B3C1
:1003C0008C6282BBC29A85B78A6085BF8BB7806E0C
:1003D0008BBF789488E30E9427018FEC97E0019708
:1003E000F1F700C0000081E00E9427018FEC97E048
:1003F0000197F1F700C000008EE00E9427018FEC0A
:1004000097E00197F1F700C0000080E80E94270103
:100410008FEC97E00197F1F700C0000080E487B906
:1004200086E886B981E00E9454010E94C60000B3AC
:1004300000720E9487000E946F000E945300D0E06B
:1004400080E4F82E96E8E92EC0B3C295C170809181
:1004500062008C1799F18FE39CE90197F1F700C0D6
:100460000000C0B3C295C17090916200913031F527
:10047000C11124C08091610089278093610080911F
:100480006100811129C00E94C6008EB5887F8EBD93
:1004900089B78F7E89BF37988AB187768AB981E01C
:1004A0000E94270181E00E9427018FE40E9415012C
:1004B00086E40E94150186E40E941501C093620043
:1004C00080916100811113C08FE39CE90197F1F7DE
:1004D00000C00000102FDCC0F7B8E6B881E00E9431
:1004E00054010E9453008D2F0E943801E7CF10B3B2
:1004F0001072011781F09FE728E381E091502040BE
:100500008040E1F700C00000859905C081E0D82750
:100510008D2F0E9438018091CC00882309F45EC0A1
:10052000DD2309F45EC01092CC000E94C00083E578
:100530000E94150183E50E94AE009FE722E382E05E
:10054000915020408040E1F700C000000E94C600AA
:100550001092CB0080E00E94540160E370E082E0E2
:100560000E94CD00009771F0C1E4029709F0C8E441
:100570008C2F0E94AE008C2F0E9415011092CB0090
:100580000E94640060E370E083E00E94CD00009769
:1005900071F0C2E4029709F0CFE48C2F0E94AE0004
:1005A0008C2F0E9415011092CB000E94640066E31C
:1005B00070E082E00E94CD00009771F0C9E50297DB
:1005C00009F0C2E58C2F0E94AE008C2F0E9415010D
:1005D0001092CB000E946400D1E05AC0D13009F4DF
:1005E000B9CF80E00E9454015F9B51C00E948700F8
:1005F0000E946F005F9BFECF8CB18A3AB1F50E94DA
:10060000C0005F9BFECF8CB19091CA008927C3E9DF
:10061000D0E08F34E1F068F4CCEBD0E08234B9F074
:10062000CBE8D0E0883499F0813479F4C5EBD0E0A0
:100630000EC0C9EAD0E0833551F0C4ECD0E0893572
:1006400031F0CBE9D0E0823511F0C8ECD0E081E0A8
:100650000E94270100E0FE01E00FF11D8081882348
:1006600049F00E9415010F5FF6CF87B3886187BB01
:10067000C398C49A9FEF21EE84E0915020408040BF
:10068000E1F700C000000E94C6000E946400D0E0B4
:10069000012FDACEA1E21A2EAA1BBB1BFD010DC051
:1006A000AA1FBB1FEE1FFF1FA217B307E407F50722
:1006B00020F0A21BB30BE40BF50B661F771F881FFE
:1006C000991F1A9469F760957095809590959B0194
:1006D000AC01BD01CF010895A29FB001B39FC0013D
:1006E000A39F700D811D1124911DB29F700D811D5E
:0A06F0001124911D0895F894FFCF26
:1006FA00FF0101C0120000118025000022004B00FA
:10070A000033009600004400E1000055002C01006F
:10071A006600C201007790D003008848454C5020FB
:10072A003A28004F564552203A2900526F6765729F
:10073A002054686174203A44005374616E64204204
:10074A00792058440041434B203A290042555359D5
:0A075A00203A7C00594553210000AD
:00000001FF
